{
  "contractName": "MarketPlace",
  "abi": [
    {
      "inputs": [],
      "stateMutability": "nonpayable",
      "type": "constructor"
    },
    {
      "anonymous": false,
      "inputs": [
        {
          "indexed": false,
          "internalType": "address",
          "name": "customer",
          "type": "address"
        }
      ],
      "name": "MissionComplete",
      "type": "event"
    },
    {
      "anonymous": false,
      "inputs": [
        {
          "indexed": false,
          "internalType": "address",
          "name": "customer",
          "type": "address"
        }
      ],
      "name": "MissionStart",
      "type": "event"
    },
    {
      "inputs": [
        {
          "internalType": "address",
          "name": "_customer",
          "type": "address"
        }
      ],
      "name": "shipped",
      "outputs": [],
      "stateMutability": "nonpayable",
      "type": "function"
    },
    {
      "inputs": [
        {
          "internalType": "address",
          "name": "_customer",
          "type": "address"
        }
      ],
      "name": "delivered",
      "outputs": [],
      "stateMutability": "nonpayable",
      "type": "function"
    },
    {
      "inputs": [],
      "name": "getStatus",
      "outputs": [
        {
          "internalType": "string",
          "name": "",
          "type": "string"
        }
      ],
      "stateMutability": "view",
      "type": "function",
      "constant": true
    },
    {
      "inputs": [],
      "name": "Status",
      "outputs": [
        {
          "internalType": "string",
          "name": "",
          "type": "string"
        }
      ],
      "stateMutability": "payable",
      "type": "function",
      "payable": true
    }
  ],
  "bytecode": "0x608060405234801561001057600080fd5b5033600060016101000a81548173ffffffffffffffffffffffffffffffffffffffff021916908373ffffffffffffffffffffffffffffffffffffffff16021790555060008060006101000a81548160ff0219169083600281111561007757610076610081565b5b02179055506100b0565b7f4e487b7100000000000000000000000000000000000000000000000000000000600052602160045260246000fd5b6106e7806100bf6000396000f3fe60806040526004361061003f5760003560e01c8063139cecd51461004457806345f09ce91461006d5780634e69d5601461008b578063d6594816146100b6575b600080fd5b34801561005057600080fd5b5061006b60048036038101906100669190610570565b6100df565b005b6100756101de565b6040516100829190610636565b60405180910390f35b34801561009757600080fd5b506100a0610255565b6040516100ad9190610636565b60405180910390f35b3480156100c257600080fd5b506100dd60048036038101906100d89190610570565b6102cc565b005b600060019054906101000a900473ffffffffffffffffffffffffffffffffffffffff1673ffffffffffffffffffffffffffffffffffffffff163373ffffffffffffffffffffffffffffffffffffffff161461013957600080fd5b60026000806101000a81548160ff0219169083600281111561015e5761015d610658565b5b021790555080600160006101000a81548173ffffffffffffffffffffffffffffffffffffffff021916908373ffffffffffffffffffffffffffffffffffffffff1602179055507f8f441b9036af4e08f3b85c6e167d3aa451793653d1be7e7890d5568b931906bc816040516101d39190610696565b60405180910390a150565b6060600160009054906101000a900473ffffffffffffffffffffffffffffffffffffffff1673ffffffffffffffffffffffffffffffffffffffff163373ffffffffffffffffffffffffffffffffffffffff161461023a57600080fd5b61025060008054906101000a900460ff166103cb565b905090565b6060600060019054906101000a900473ffffffffffffffffffffffffffffffffffffffff1673ffffffffffffffffffffffffffffffffffffffff163373ffffffffffffffffffffffffffffffffffffffff16146102b157600080fd5b6102c760008054906101000a900460ff166103cb565b905090565b600060019054906101000a900473ffffffffffffffffffffffffffffffffffffffff1673ffffffffffffffffffffffffffffffffffffffff163373ffffffffffffffffffffffffffffffffffffffff161461032657600080fd5b60016000806101000a81548160ff0219169083600281111561034b5761034a610658565b5b021790555080600160006101000a81548173ffffffffffffffffffffffffffffffffffffffff021916908373ffffffffffffffffffffffffffffffffffffffff1602179055507f8f441b9036af4e08f3b85c6e167d3aa451793653d1be7e7890d5568b931906bc816040516103c09190610696565b60405180910390a150565b6060600060028111156103e1576103e0610658565b5b8260028111156103f4576103f3610658565b5b03610436576040518060400160405280600781526020017f50454e44494e47000000000000000000000000000000000000000000000000008152509050610508565b60028081111561044957610448610658565b5b82600281111561045c5761045b610658565b5b0361049e576040518060400160405280600781526020017f53484950504544000000000000000000000000000000000000000000000000008152509050610508565b600160028111156104b2576104b1610658565b5b8260028111156104c5576104c4610658565b5b03610507576040518060400160405280600981526020017f44454c49564552454400000000000000000000000000000000000000000000008152509050610508565b5b919050565b600080fd5b600073ffffffffffffffffffffffffffffffffffffffff82169050919050565b600061053d82610512565b9050919050565b61054d81610532565b811461055857600080fd5b50565b60008135905061056a81610544565b92915050565b6000602082840312156105865761058561050d565b5b60006105948482850161055b565b91505092915050565b600081519050919050565b600082825260208201905092915050565b60005b838110156105d75780820151818401526020810190506105bc565b838111156105e6576000848401525b50505050565b6000601f19601f8301169050919050565b60006106088261059d565b61061281856105a8565b93506106228185602086016105b9565b61062b816105ec565b840191505092915050565b6000602082019050818103600083015261065081846105fd565b905092915050565b7f4e487b7100000000000000000000000000000000000000000000000000000000600052602160045260246000fd5b61069081610532565b82525050565b60006020820190506106ab6000830184610687565b9291505056fea26469706673582212202d30893006d8e6e1a13756c23bee0804f794ba71fb2eb9b92528ba352cc7784e64736f6c634300080d0033",
  "immutableReferences": {},
  "source": "// SPDX-License-Identifier: MIT\r\npragma solidity ^0.8.13;\r\n\r\n/**\r\n* @title MarketPlace\r\n* @dev Follow the shipment of an item\r\n*/\r\ncontract MarketPlace {\r\n    enum ShippingStatus{ PENDING, DELIVERED, SHIPPED }\r\n\r\n    ShippingStatus status;\r\n    address owner;\r\n    address customer;\r\n\r\n    event MissionStart(address customer);\r\n    event MissionComplete(address customer);\r\n\r\n    /**\r\n    * @dev Constructor that initialize owner and status\r\n    */\r\n    constructor() {\r\n        owner = msg.sender;\r\n        status = ShippingStatus.PENDING;\r\n    }\r\n\r\n    /**\r\n    * @dev Change the status of the shipment to shipped\r\n    * @param _customer the address of the customer\r\n    */\r\n    function shipped(address _customer) public _ownerOnly {\r\n        status = ShippingStatus.SHIPPED;\r\n        customer = _customer;\r\n        emit MissionStart(_customer);\r\n    }\r\n\r\n    /**\r\n    * @dev Change the status of the shipment to delivered\r\n    * @param _customer the address of the customer\r\n    */\r\n    function delivered(address _customer) public _ownerOnly {\r\n        status = ShippingStatus.DELIVERED;\r\n        customer = _customer;\r\n        emit MissionStart(_customer);\r\n    }\r\n\r\n    /**\r\n    * @dev Get the status for the owner\r\n    * @return A string representation of the status\r\n    */\r\n    function getStatus() public view _ownerOnly returns (string memory) {\r\n        return getLabelFromEnum(status);\r\n    }\r\n\r\n    /**\r\n    * @dev Get the status for the customer\r\n    * @return A string representation of the status\r\n    */\r\n    function Status() public payable _customerOnly returns (string memory) {\r\n        return getLabelFromEnum(status);\r\n    }\r\n\r\n    /**\r\n    * @dev Get the string representation of the given status \r\n    * @return A string representation of the status\r\n    */\r\n    function getLabelFromEnum(ShippingStatus _status) private pure returns (string memory) {\r\n        if (_status == ShippingStatus.PENDING) {\r\n            return \"PENDING\";\r\n        }\r\n        else if (_status == ShippingStatus.SHIPPED) {\r\n            return \"SHIPPED\";\r\n        }\r\n        else if (_status == ShippingStatus.DELIVERED) {\r\n            return \"DELIVERED\";\r\n        }\r\n    }\r\n\r\n    /**\r\n    * @dev Modifier to restrain function usage to the contract owner only\r\n    */\r\n    modifier _ownerOnly(){\r\n      require(msg.sender == owner);\r\n      _;\r\n    }\r\n\r\n    /**\r\n    * @dev Modifier to restrain function usage to the customer only\r\n    */\r\n    modifier _customerOnly(){\r\n      require(msg.sender == customer);\r\n      _;\r\n    }\r\n}",
  "sourcePath": "C:\\Users\\Bastien\\Documents\\Ynov\\Blockchain\\EvalFinale\\contracts\\MarketPlace.sol",
  "compiler": {
    "name": "solc",
    "version": "0.8.13+commit.abaa5c0e.Emscripten.clang"
  },
  "schemaVersion": "3.4.12",
  "updatedAt": "2023-03-09T09:22:06.857Z",
  "networkType": "ethereum",
  "devdoc": {
    "details": "Follow the shipment of an item",
    "kind": "dev",
    "methods": {
      "Status()": {
        "details": "Get the status for the customer",
        "returns": {
          "_0": "A string representation of the status"
        }
      },
      "constructor": {
        "details": "Constructor that initialize owner and status"
      },
      "delivered(address)": {
        "details": "Change the status of the shipment to delivered",
        "params": {
          "_customer": "the address of the customer"
        }
      },
      "getStatus()": {
        "details": "Get the status for the owner",
        "returns": {
          "_0": "A string representation of the status"
        }
      },
      "shipped(address)": {
        "details": "Change the status of the shipment to shipped",
        "params": {
          "_customer": "the address of the customer"
        }
      }
    },
    "title": "MarketPlace",
    "version": 1
  },
  "userdoc": {
    "kind": "user",
    "methods": {},
    "notice": "",
    "version": 1
  }
}